{
  "contractName": "LotteryGame",
  "abi": [
    {
      "constant": true,
      "inputs": [],
      "name": "pendingWinner",
      "outputs": [
        {
          "name": "",
          "type": "string"
        }
      ],
      "payable": false,
      "stateMutability": "view",
      "type": "function"
    },
    {
      "constant": true,
      "inputs": [],
      "name": "numParticipants",
      "outputs": [
        {
          "name": "",
          "type": "uint256"
        }
      ],
      "payable": false,
      "stateMutability": "view",
      "type": "function"
    },
    {
      "constant": true,
      "inputs": [],
      "name": "numRounds",
      "outputs": [
        {
          "name": "",
          "type": "uint256"
        }
      ],
      "payable": false,
      "stateMutability": "view",
      "type": "function"
    },
    {
      "constant": true,
      "inputs": [],
      "name": "winner",
      "outputs": [
        {
          "name": "",
          "type": "bytes1"
        }
      ],
      "payable": false,
      "stateMutability": "view",
      "type": "function"
    },
    {
      "constant": false,
      "inputs": [],
      "name": "initialize",
      "outputs": [],
      "payable": false,
      "stateMutability": "nonpayable",
      "type": "function"
    },
    {
      "constant": false,
      "inputs": [],
      "name": "generateWinner",
      "outputs": [],
      "payable": false,
      "stateMutability": "nonpayable",
      "type": "function"
    }
  ],
  "bytecode": "0x608060405234801561001057600080fd5b506105e7806100206000396000f300608060405260043610610078576000357c0100000000000000000000000000000000000000000000000000000000900463ffffffff16806310efbc291461007d578063188af6571461010d5780634e76a846146101245780638129fc1c1461014f5780639d78325d14610166578063dfbf53ae14610191575b600080fd5b34801561008957600080fd5b50610092610200565b6040518080602001828103825283818151815260200191508051906020019080838360005b838110156100d25780820151818401526020810190506100b7565b50505050905090810190601f1680156100ff5780820380516001836020036101000a031916815260200191505b509250505060405180910390f35b34801561011957600080fd5b5061012261029e565b005b34801561013057600080fd5b506101396102ea565b6040518082815260200191505060405180910390f35b34801561015b57600080fd5b506101646102f0565b005b34801561017257600080fd5b5061017b6104a1565b6040518082815260200191505060405180910390f35b34801561019d57600080fd5b506101a66104a7565b60405180827effffffffffffffffffffffffffffffffffffffffffffffffffffffffffffff19167effffffffffffffffffffffffffffffffffffffffffffffffffffffffffffff1916815260200191505060405180910390f35b60368054600181600116156101000203166002900480601f0160208091040260200160405190810160405280929190818152602001828054600181600116156101000203166002900480156102965780601f1061026b57610100808354040283529160200191610296565b820191906000526020600020905b81548152906001019060200180831161027957829003601f168201915b505050505081565b6000607b90506102ad816104d9565b603560006101000a81548160ff02191690837f01000000000000000000000000000000000000000000000000000000000000009004021790555050565b60345481565b60008060019054906101000a900460ff1680610310575061030f610505565b5b8061032757506000809054906101000a900460ff16155b15156103c1576040517f08c379a000000000000000000000000000000000000000000000000000000000815260040180806020018281038252602e8152602001807f436f6e747261637420696e7374616e63652068617320616c726561647920626581526020017f656e20696e697469616c697a656400000000000000000000000000000000000081525060400191505060405180910390fd5b600060019054906101000a900460ff1690506001600060016101000a81548160ff02191690831515021790555060016000806101000a81548160ff021916908315150217905550600460338190555061010060348190555060206040519081016040528060008152506036908051906020019061043f929190610516565b5061044a60006104d9565b603560006101000a81548160ff02191690837f01000000000000000000000000000000000000000000000000000000000000009004021790555080600060016101000a81548160ff02191690831515021790555050565b60335481565b603560009054906101000a90047f01000000000000000000000000000000000000000000000000000000000000000281565b6000817f0100000000000000000000000000000000000000000000000000000000000000029050919050565b600080303b90506000811491505090565b828054600181600116156101000203166002900490600052602060002090601f016020900481019282601f1061055757805160ff1916838001178555610585565b82800160010185558215610585579182015b82811115610584578251825591602001919060010190610569565b5b5090506105929190610596565b5090565b6105b891905b808211156105b457600081600090555060010161059c565b5090565b905600a165627a7a723058205bf60c11906cb162f14098e0a5e2c6a26294d128d0a2c4c6a296f581248e9f130029",
  "source": "pragma solidity ^0.4.24;\n\nimport \"zos-lib/contracts/Initializable.sol\";\n\n// Generates an 8-bit winning bitstring\ncontract LotteryGame is Initializable {\n\n    uint256 public numRounds; // Number of rounds\n    uint256 public numParticipants; // Number of participants\n    byte public winner; // Make this private for production!\n    string public pendingWinner; // Currently revealed bitstring\n\n    // Events\n\n    function initialize() initializer public {\n        numRounds = 4; \n        numParticipants = 256; // 2^8 bits = 256 participants\n        pendingWinner = \"\";\n\n        winner = toByte(uint8(0));\n    }\n\n    function toByte(uint8 _num) internal pure returns (byte _ret) {\n        return byte(_num);\n    }\n\n    // Generate winning 8-bit bitstring\n    function generateWinner() public {\n        \n        uint8 randomNumber = uint8(123);\n        winner = toByte(randomNumber);\n    }\n\n    //TODO:\n    // Add following methods\n    // Int to bit string\n    // Generate ith bit\n    // Random number generator https://medium.com/@promentol/lottery-smart-contract-can-we-generate-random-numbers-in-solidity-4f586a152b27\n\n}",
  "sourcePath": "/Users/nicholaspai/Carbon/lottery/contracts/LotteryGame.sol",
  "compiler": {
    "name": "solc",
    "version": "0.4.24+commit.e67f0147.Emscripten.clang"
  },
  "schemaVersion": "2.0.1",
  "updatedAt": "2018-11-03T23:51:46.331Z"
}