{
  "contractName": "LotteryGame",
  "abi": [
    {
      "constant": true,
      "inputs": [],
      "name": "pendingWinner",
      "outputs": [
        {
          "name": "",
          "type": "string"
        }
      ],
      "payable": false,
      "stateMutability": "view",
      "type": "function"
    },
    {
      "constant": true,
      "inputs": [],
      "name": "numParticipants",
      "outputs": [
        {
          "name": "",
          "type": "uint256"
        }
      ],
      "payable": false,
      "stateMutability": "view",
      "type": "function"
    },
    {
      "constant": true,
      "inputs": [],
      "name": "numRounds",
      "outputs": [
        {
          "name": "",
          "type": "uint256"
        }
      ],
      "payable": false,
      "stateMutability": "view",
      "type": "function"
    },
    {
      "constant": true,
      "inputs": [],
      "name": "winner",
      "outputs": [
        {
          "name": "",
          "type": "bytes1"
        }
      ],
      "payable": false,
      "stateMutability": "view",
      "type": "function"
    },
    {
      "anonymous": false,
      "inputs": [
        {
          "indexed": false,
          "name": "winner",
          "type": "bytes1"
        }
      ],
      "name": "WinnerGenerated",
      "type": "event"
    },
    {
      "constant": false,
      "inputs": [],
      "name": "initialize",
      "outputs": [],
      "payable": false,
      "stateMutability": "nonpayable",
      "type": "function"
    }
  ],
  "bytecode": "0x608060405234801561001057600080fd5b50610628806100206000396000f30060806040526004361061006d576000357c0100000000000000000000000000000000000000000000000000000000900463ffffffff16806310efbc29146100725780634e76a846146101025780638129fc1c1461012d5780639d78325d14610144578063dfbf53ae1461016f575b600080fd5b34801561007e57600080fd5b506100876101de565b6040518080602001828103825283818151815260200191508051906020019080838360005b838110156100c75780820151818401526020810190506100ac565b50505050905090810190601f1680156100f45780820380516001836020036101000a031916815260200191505b509250505060405180910390f35b34801561010e57600080fd5b5061011761027c565b6040518082815260200191505060405180910390f35b34801561013957600080fd5b50610142610282565b005b34801561015057600080fd5b506101596104e2565b6040518082815260200191505060405180910390f35b34801561017b57600080fd5b506101846104e8565b60405180827effffffffffffffffffffffffffffffffffffffffffffffffffffffffffffff19167effffffffffffffffffffffffffffffffffffffffffffffffffffffffffffff1916815260200191505060405180910390f35b60368054600181600116156101000203166002900480601f0160208091040260200160405190810160405280929190818152602001828054600181600116156101000203166002900480156102745780601f1061024957610100808354040283529160200191610274565b820191906000526020600020905b81548152906001019060200180831161025757829003601f168201915b505050505081565b60345481565b600080600060019054906101000a900460ff16806102a457506102a361051a565b5b806102bb57506000809054906101000a900460ff16155b1515610355576040517f08c379a000000000000000000000000000000000000000000000000000000000815260040180806020018281038252602e8152602001807f436f6e747261637420696e7374616e63652068617320616c726561647920626581526020017f656e20696e697469616c697a656400000000000000000000000000000000000081525060400191505060405180910390fd5b600060019054906101000a900460ff1690506001600060016101000a81548160ff02191690831515021790555060016000806101000a81548160ff02191690831515021790555060046033819055506101006034819055506020604051908101604052806000815250603690805190602001906103d3929190610557565b5060c891506103e18261052b565b603560006101000a81548160ff02191690837f0100000000000000000000000000000000000000000000000000000000000000900402179055507fc1d1a9d97a8d41277f4276bbfec884c830c42a9af01ef2662213a6ccaea0d356603560009054906101000a90047f01000000000000000000000000000000000000000000000000000000000000000260405180827effffffffffffffffffffffffffffffffffffffffffffffffffffffffffffff19167effffffffffffffffffffffffffffffffffffffffffffffffffffffffffffff1916815260200191505060405180910390a180600060016101000a81548160ff0219169083151502179055505050565b60335481565b603560009054906101000a90047f01000000000000000000000000000000000000000000000000000000000000000281565b600080303b90506000811491505090565b6000817f0100000000000000000000000000000000000000000000000000000000000000029050919050565b828054600181600116156101000203166002900490600052602060002090601f016020900481019282601f1061059857805160ff19168380011785556105c6565b828001600101855582156105c6579182015b828111156105c55782518255916020019190600101906105aa565b5b5090506105d391906105d7565b5090565b6105f991905b808211156105f55760008160009055506001016105dd565b5090565b905600a165627a7a72305820f4a67869066ce2a7535600a46e3db4c19b8768efdc7d688fa9ca0feb0f0d0d130029",
  "source": "pragma solidity ^0.4.24;\n\nimport \"zos-lib/contracts/Initializable.sol\";\n\n// Generates an 8-bit winning bitstring\ncontract LotteryGame is Initializable {\n\n    uint256 public numRounds; // Number of rounds\n    uint256 public numParticipants; // Number of participants\n    byte public winner; // Make this private for production!\n    string public pendingWinner; // Currently revealed bitstring\n\n    // Events\n    event WinnerGenerated(byte winner);\n\n    function initialize() initializer public {\n        numRounds = 4; \n        numParticipants = 256; // 2^8 bits = 256 participants\n        pendingWinner = \"\";\n\n        // Generate winning 8-bit bitstring\n        uint8 randomNumber = uint8(200);\n        winner = toByte(randomNumber);\n        emit WinnerGenerated(winner);\n    }\n\n    function toByte(uint8 _num) internal pure returns (byte _ret) {\n        return byte(_num);\n    }\n\n}",
  "sourcePath": "/Users/nicholaspai/Carbon/lottery/contracts/LotteryGame.sol",
  "compiler": {
    "name": "solc",
    "version": "0.4.24+commit.e67f0147.Emscripten.clang"
  },
  "schemaVersion": "2.0.1",
  "updatedAt": "2018-11-03T21:54:42.266Z"
}