{
  "contractName": "MyContract",
  "abi": [
    {
      "constant": true,
      "inputs": [],
      "name": "x",
      "outputs": [
        {
          "name": "",
          "type": "uint256"
        }
      ],
      "payable": false,
      "stateMutability": "view",
      "type": "function"
    },
    {
      "constant": true,
      "inputs": [],
      "name": "s",
      "outputs": [
        {
          "name": "",
          "type": "string"
        }
      ],
      "payable": false,
      "stateMutability": "view",
      "type": "function"
    },
    {
      "constant": false,
      "inputs": [
        {
          "name": "_x",
          "type": "uint256"
        },
        {
          "name": "_s",
          "type": "string"
        }
      ],
      "name": "initialize",
      "outputs": [],
      "payable": false,
      "stateMutability": "nonpayable",
      "type": "function"
    },
    {
      "constant": false,
      "inputs": [],
      "name": "increment",
      "outputs": [],
      "payable": false,
      "stateMutability": "nonpayable",
      "type": "function"
    }
  ],
  "bytecode": "0x608060405234801561001057600080fd5b5061049a806100206000396000f300608060405260043610610062576000357c0100000000000000000000000000000000000000000000000000000000900463ffffffff1680630c55699c146100675780636e9d13ab1461009257806386b714e214610105578063d09de08a14610195575b600080fd5b34801561007357600080fd5b5061007c6101ac565b6040518082815260200191505060405180910390f35b34801561009e57600080fd5b5061010360048036038101908080359060200190929190803590602001908201803590602001908080601f01602080910402602001604051908101604052809392919081815260200183838082843782019150505050505091929192905050506101b2565b005b34801561011157600080fd5b5061011a610307565b6040518080602001828103825283818151815260200191508051906020019080838360005b8381101561015a57808201518184015260208101905061013f565b50505050905090810190601f1680156101875780820380516001836020036101000a031916815260200191505b509250505060405180910390f35b3480156101a157600080fd5b506101aa6103a5565b005b60335481565b60008060019054906101000a900460ff16806101d257506101d16103b8565b5b806101e957506000809054906101000a900460ff16155b1515610283576040517f08c379a000000000000000000000000000000000000000000000000000000000815260040180806020018281038252602e8152602001807f436f6e747261637420696e7374616e63652068617320616c726561647920626581526020017f656e20696e697469616c697a656400000000000000000000000000000000000081525060400191505060405180910390fd5b600060019054906101000a900460ff1690506001600060016101000a81548160ff02191690831515021790555060016000806101000a81548160ff0219169083151502179055508260338190555081603490805190602001906102e79291906103c9565b5080600060016101000a81548160ff021916908315150217905550505050565b60348054600181600116156101000203166002900480601f01602080910402602001604051908101604052809291908181526020018280546001816001161561010002031660029004801561039d5780601f106103725761010080835404028352916020019161039d565b820191906000526020600020905b81548152906001019060200180831161038057829003601f168201915b505050505081565b6001603360008282540192505081905550565b600080303b90506000811491505090565b828054600181600116156101000203166002900490600052602060002090601f016020900481019282601f1061040a57805160ff1916838001178555610438565b82800160010185558215610438579182015b8281111561043757825182559160200191906001019061041c565b5b5090506104459190610449565b5090565b61046b91905b8082111561046757600081600090555060010161044f565b5090565b905600a165627a7a723058209645723c1fc22620f1c9b638a72e1fc2bfd58319ca85e08d11bb5cbbee4ede0d0029",
  "source": "pragma solidity ^0.4.24;\n\nimport \"zos-lib/contracts/Initializable.sol\";\n\ncontract MyContract is Initializable {\n\n  uint256 public x;\n  string public s;\n  bool private initialized;\n\n  // initializer function is effectively the constructor\n  function initialize(uint256 _x, string _s) initializer public {\n    x = _x;\n    s = _s;\n  }\n  function increment() public {\n    x += 1;\n  }\n}",
  "sourcePath": "/Users/nicholaspai/Carbon/lottery/contracts/MyContract.sol",
  "compiler": {
    "name": "solc",
    "version": "0.4.24+commit.e67f0147.Emscripten.clang"
  },
  "schemaVersion": "2.0.1",
  "updatedAt": "2018-11-03T20:06:25.238Z"
}