{
  "contractName": "MyLinkedContract",
  "abi": [
    {
      "constant": false,
      "inputs": [
        {
          "name": "token",
          "type": "address"
        }
      ],
      "name": "setToken",
      "outputs": [],
      "payable": false,
      "stateMutability": "nonpayable",
      "type": "function"
    }
  ],
  "bytecode": "0x608060405234801561001057600080fd5b50610134806100206000396000f300608060405260043610610041576000357c0100000000000000000000000000000000000000000000000000000000900463ffffffff168063144fa6d714610046575b600080fd5b34801561005257600080fd5b50610087600480360381019080803573ffffffffffffffffffffffffffffffffffffffff169060200190929190505050610089565b005b600073ffffffffffffffffffffffffffffffffffffffff168173ffffffffffffffffffffffffffffffffffffffff16141515156100c557600080fd5b806000806101000a81548173ffffffffffffffffffffffffffffffffffffffff021916908373ffffffffffffffffffffffffffffffffffffffff160217905550505600a165627a7a72305820993f8ceaa7798522009b6e2d80b01a2ad5adf92a1e2ff81bddf26b05cbe1c62f0029",
  "source": "pragma solidity ^0.4.24;\n\nimport \"openzeppelin-eth/contracts/token/ERC721/ERC721Mintable.sol\";\n\ncontract MyLinkedContract {\n  ERC721Mintable private _token;\n\n  function setToken(ERC721Mintable token) external {\n    require(token != address(0));\n    _token = token;\n  }\n}",
  "sourcePath": "/Users/nicholaspai/Carbon/lottery/contracts/MyLinkedContract.sol",
  "compiler": {
    "name": "solc",
    "version": "0.4.24+commit.e67f0147.Emscripten.clang"
  },
  "schemaVersion": "2.0.1",
  "updatedAt": "2018-11-03T21:54:42.259Z"
}